S00C0000746573742E7372656358
S11300000C942A000C943F000C943F000C943F0085
S11300100C943F000C943F000C943F000C943F0060
S11300200C943F000C943F000C943F000C943F0050
S11300300C943F000C943F000C943F000C943F0040
S11300400C943F000C943F000C943F000C943F0030
S11300500C943F0011241FBECFE5D4E0DEBFCDBF1A
S113006010E0A0E6B0E0EEEBFCE002C005900D92DB
S1130070A238B107D9F70E9466000C945D060C946F
S113008000009698959885BB979A82E08A95F1F737
S113009000C097988FE99FE00197F1F700C0000036
S11300A00895FC019191992381F0969A959895BBB6
S11300B0979A82E08A95F1F700C097988FEC97E0C1
S11300C00197F1F700C00000EDCF0895CF93DF93BF
S11300D0CDB7DEB760970FB6F894DEBF0FBECDBFC5
S11300E08FEF84BB8E9A8D9A8F9A2FEF89EF90E0D1
S11300F0215080409040E1F700C000009698959808
S113010088E385BB979AA2E0AA95F1F700C0979877
S11301108FE99FE00197F1F700C000008CE085BBF8
S1130120979A92E09A95F1F700C09798AFE9BFE0EB
S11301301197F1F700C0000081E085BB979A8FE921
S11301409FE00197F1F700C0000086E085BB979A15
S1130150AFE9BFE01197F1F700C00000D098D8983C
S113016080E487B987E886B996E6292E90E0392E8F
S11301708E010F5F1F4F87B1807F816087B9369AE8
S11301803699FECF24B135B1A8E8B3E10E946903E2
S11301906B017C018AE0F694E794D794C7948A951E
S11301A0D1F7B60180E090E00E946E0220E030E0DA
S11301B040E251E40E94C6019B01AC010E945A0135
S11301C020E030E040E05FE30E945A010E943802E0
S11301D0072E000C880B990B0E94700220E030E07F
S11301E040E05FE30E94FC022B013C010E943F02BD
S11301F04B015C0181E00E9441008FE99FE001977F
S1130200F1F700C0000080E80E94410080E690E021
S11302100E945100DF92CF923F922F921F9290E161
S11302209F931F930F930E94780386E80E944100D6
S1130230C8010E94510080EC0E9441008DE690E0CC
S11302400E945100B40180E090E00E946E029B0184
S1130250AC01C301B2010E94590120E030E040E248
S113026051E40E94FC020E943F027F936F939F928D
S11302708F92A7E7B0E0BF93AF931F9280E18F9373
S11302801F930F930E9478038AEC0E944100C801D7
S11302900E9451000FB6F894DEBF0FBECDBFBFEF72
S11302A024E38CE0B15020408040E1F700C000001E
S11302B062CF5058BB27AA270E9471010C94C20236
S11302C00E94B40238F00E94BB0220F039F49F3F30
S11302D019F426F40C94B1020EF4E095E7FB0C94A7
S11302E0AB02E92F0E94D30258F3BA1762077307CF
S11302F08407950720F079F4A6F50C94F5020EF422
S1130300E0950B2EBA2FA02D0B01B90190010C0121
S1130310CA01A0011124FF27591B99F0593F50F439
S1130320503E68F11A16F040A22F232F342F442791
S1130330585FF3CF469537952795A795F040539589
S1130340C9F77EF41F16BA0B620B730B840BBAF059
S11303509150A1F0FF0FBB1F661F771F881FC2F7C4
S11303600EC0BA0F621F731F841F48F487957795D8
S11303706795B795F7959E3F08F0B0CF9395880F92
S113038008F09927EE0F9795879508950E94DA0152
S11303900C94C2020E94BB0258F00E94B40240F0C6
S11303A029F45F3F29F00C94AB0251110C94F6022E
S11303B00C94B1020E94D30268F39923B1F355233C
S11303C091F3951B550BBB27AA2762177307840764
S11303D038F09F5F5F4F220F331F441FAA1FA9F3FA
S11303E035D00E2E3AF0E0E832D091505040E695E8
S11303F0001CCAF72BD0FE2F29D0660F771F881F49
S1130400BB1F261737074807AB07B0E809F0BB0B3B
S1130410802DBF01FF2793585F4F3AF09E3F51054F
S113042078F00C94AB020C94F6025F3FE4F3983E30
S1130430D4F3869577956795B795F7959F5FC9F738
S1130440880F911D9695879597F90895E1E0660FB9
S1130450771F881FBB1F621773078407BA0720F032
S1130460621B730B840BBA0BEE1F88F7E09508959B
S11304700E943F026894B1110C94F60208950E9400
S1130480DB0288F09F5798F0B92F9927B751B0F045
S1130490E1F0660F771F881F991F1AF0BA95C9F704
S11304A014C0B13091F00E94F502B1E008950C94AB
S11304B0F502672F782F8827B85F39F0B93FCCF35E
S11304C0869577956795B395D9F73EF49095809581
S11304D0709561957F4F8F4F9F4F0895E89409C0A1
S11304E097FB3EF490958095709561957F4F8F4F63
S11304F09F4F9923A9F0F92F96E9BB279395F69579
S1130500879577956795B795F111F8CFFAF4BB0FF6
S113051011F460FF1BC06F5F7F4F8F4F9F4F16C05A
S1130520882311F096E911C0772321F09EE8872FE4
S1130530762F05C0662371F096E8862F70E060E0A0
S11305402AF09A95660F771F881FDAF7880F969519
S1130550879597F9089597F99F6780E870E060E0C0
S113056008959FEF80EC089500240A941616170648
S113057018060906089500240A9412161306140690
S113058005060895092E0394000C11F4882352F0F3
S1130590BB0F40F4BF2B11F460FF04C06F5F7F4FAB
S11305A08F4F9F4F089557FD9058440F551F59F092
S11305B05F3F71F04795880F97FB991F61F09F3F4C
S11305C079F087950895121613061406551FF2CF75
S11305D04695F1DF08C0161617061806991FF1CFC5
S11305E086957105610508940895E894BB276627EC
S11305F07727CB0197F908950E940F030C94C20248
S11306000E94B40238F00E94BB0220F0952311F03E
S11306100C94AB020C94B10211240C94F6020E94C7
S1130620D30270F3959FC1F3950F50E0551F629F5D
S1130630F001729FBB27F00DB11D639FAA27F00D37
S1130640B11DAA1F649F6627B00DA11D661F829F5E
S11306502227B00DA11D621F739FB00DA11D621F43
S1130660839FA00D611D221F749F3327A00D611D60
S1130670231F849F600D211D822F762F6A2F112442
S11306809F5750409AF0F1F088234AF0EE0FFF1F75
S1130690BB1F661F771F881F91505040A9F79E3FCC
S11306A0510580F00C94AB020C94F6025F3FE4F326
S11306B0983ED4F3869577956795B795F795E79522
S11306C09F5FC1F7FE2B880F911D9695879597F92B
S11306D00895A29FB001B39FC001A39F700D811D17
S11306E01124911DB29F700D811D1124911D089537
S11306F0AEE0B0E0EEE7F3E00C9434060D891E8919
S11307008F89988D26E02C831A83098397FF02C072
S113071080E090E801979E838D83AE01455E5F4F34
S1130720698D7A8DCE0101960E94A8034D815E8168
S113073057FD0AC02F813885421753070CF49A01DC
S1130740F801E20FF31F10822E96E4E00C94500699
S1130750ACE0B0E0EEEAF3E00C9426067C016B0119
S11307608A01FC0117821682838181FFBDC1CE01FB
S113077001964C01F7019381F60193FD859193FF56
S113078081916F01882309F4ABC1853239F493FD5B
S1130790859193FF81916F01853229F4B70190E02F
S11307A00E949005E7CF512C312C20E02032A0F498
S11307B08B3269F030F4803259F0833269F420616D
S11307C02CC08D3239F0803339F4216026C0226088
S11307D0246023C0286021C027FD27C030ED380FD6
S11307E03A3078F426FF06C0FAE05F9E300D1124FB
S11307F0532E13C08AE0389E300D1124332E20620C
S11308000CC08E3221F426FD6BC1206406C08C36E8
S113081011F4206802C0883641F4F60193FD8591F5
S113082093FF81916F018111C1CF982F9F7D9554C2
S1130830933028F40C5F1F4FFFE3F9830DC0833618
S113084031F0833771F0833509F05BC022C0F801C1
S1130850808189830E5F1F4F44244394512C54019B
S113086015C03801F2E06F0E711CF801A080B18050
S113087026FF03C0652D70E002C06FEF7FEFC50156
S11308802C870E9485052C0183012C852F77222E2D
S113089017C03801F2E06F0E711CF801A080B1801E
S11308A026FF03C0652D70E002C06FEF7FEFC50126
S11308B02C870E947A052C012C852068222E830126
S11308C023FC1BC0832D90E048165906B0F4B701F1
S11308D080E290E00E9490053A94F4CFF50127FC61
S11308E0859127FE81915F01B70190E00E949005F8
S11308F031103A94F1E04F1A51084114510471F740
S1130900E5C0843611F0893639F5F80127FF07C0B0
S113091060817181828193810C5F1F4F08C0608167
S11309207181072E000C880B990B0E5F1F4F2F76D9
S1130930722E97FF09C090958095709561957F4FB1
S11309408F4F9F4F2068722E2AE030E0A4010E944E
S1130950C805A82EA81844C0853729F42F7EB22EC6
S11309602AE030E025C0F22FF97FBF2E8F36C1F088
S113097018F4883579F0B4C0803719F0883721F03D
S1130980AFC02F2F2061B22EB4FE0DC08B2D84601A
S1130990B82E09C024FF0AC09F2F9660B92E06C046
S11309A028E030E005C020E130E002C020E132E080
S11309B0F801B7FE07C060817181828193810C5F69
S11309C01F4F06C06081718180E090E00E5F1F4F71
S11309D0A4010E94C805A82EA818FB2DFF777F2E1E
S11309E076FE0BC0372D3E7FA51450F474FE0AC06A
S11309F072FC08C0372D3E7E05C0BA2C372D03C0CB
S1130A00BA2C01C0B52C34FF0DC0FE01EA0DF11D56
S1130A108081803311F4397E09C032FF06C0B3945B
S1130A20B39404C0832F867809F0B39433FD13C0C4
S1130A3030FF06C05A2CB31418F4530C5B18B32CB3
S1130A40B31468F4B70180E290E03C870E949005FB
S1130A50B3943C85F5CFB31410F43B1801C0312C8A
S1130A6034FF12C0B70180E390E03C870E949005F8
S1130A703C8532FF17C031FD03C088E790E002C017
S1130A8088E590E0B7010CC0832F867859F031FFD8
S1130A9002C08BE201C080E237FD8DE2B70190E035
S1130AA00E949005A51438F4B70180E390E00E94F9
S1130AB090055A94F7CFAA94F401EA0DF11D8081B0
S1130AC0B70190E00E949005A110F5CF332009F4FE
S1130AD051CEB70180E290E00E9490053A94F6CF9F
S1130AE0F7018681978102C08FEF9FEF2C96E2E198
S1130AF00C944206FC010590615070400110D8F737
S1130B00809590958E0F9F1F0895FC016150704051
S1130B1001900110D8F7809590958E0F9F1F08952E
S1130B200F931F93CF93DF93FB01238121FD03C018
S1130B308FEF9FEF28C022FF16C046815781248182
S1130B4035814217530744F4A081B1819D012F5F81
S1130B503F4F318320838C93268137812F5F3F4F12
S1130B603783268310C0EB01092F182F0084F185E9
S1130B70E02D0995892BE1F68E819F8101969F8353
S1130B808E83812F902FDF91CF911F910F91089524
S1130B90FA01AA27283051F1203181F1E8946F93AA
S1130BA06E7F6E5F7F4F8F4F9F4FAF4FB1E03ED050
S1130BB0B4E03CD0670F781F891F9A1FA11D680FEE
S1130BC0791F8A1F911DA11D6A0F711D811D911D21
S1130BD0A11D20D009F468943F912AE0269F112496
S1130BE03019305D3193DEF6CF010895462F4770FA
S1130BF0405D4193B3E00FD0C9F7F6CF462F4F7055
S1130C00405D4A3318F0495D31FD4052419302D0B2
S1130C10A9F7EACFB4E0A695979587957795679558
S1130C20BA95C9F700976105710508959B01AC0158
S1130C300A2E06945795479537952795BA95C9F77F
S1130C40620F731F841F951FA01D08952F923F925A
S1130C504F925F926F927F928F929F92AF92BF92C8
S1130C60CF92DF92EF92FF920F931F93CF93DF9374
S1130C70CDB7DEB7CA1BDB0B0FB6F894DEBF0FBED1
S1130C80CDBF09942A88398848885F846E847D841E
S1130C908C849B84AA84B984C884DF80EE80FD8020
S1130CA00C811B81AA81B981CE0FD11D0FB6F89496
S1110CB0DEBF0FBECDBFED010895F894FFCF57
S1130CBE566F75743A00253475206D56004E68696A
S1130CCE657420646F3A002532752E2531752043E4
S1050CDE000010
S9030000FC
